{
  "contractName": "MultiSender",
  "abi": [
    {
      "inputs": [],
      "stateMutability": "nonpayable",
      "type": "constructor"
    },
    {
      "anonymous": false,
      "inputs": [
        {
          "indexed": true,
          "internalType": "address",
          "name": "previousOwner",
          "type": "address"
        },
        {
          "indexed": true,
          "internalType": "address",
          "name": "newOwner",
          "type": "address"
        }
      ],
      "name": "OwnershipTransferred",
      "type": "event"
    },
    {
      "inputs": [
        {
          "internalType": "address",
          "name": "",
          "type": "address"
        }
      ],
      "name": "multiSendingInfo",
      "outputs": [
        {
          "internalType": "uint256",
          "name": "",
          "type": "uint256"
        }
      ],
      "stateMutability": "view",
      "type": "function"
    },
    {
      "inputs": [],
      "name": "owner",
      "outputs": [
        {
          "internalType": "address",
          "name": "",
          "type": "address"
        }
      ],
      "stateMutability": "view",
      "type": "function"
    },
    {
      "inputs": [],
      "name": "renounceOwnership",
      "outputs": [],
      "stateMutability": "nonpayable",
      "type": "function"
    },
    {
      "inputs": [],
      "name": "tokenAddressForDistribution",
      "outputs": [
        {
          "internalType": "address",
          "name": "",
          "type": "address"
        }
      ],
      "stateMutability": "view",
      "type": "function"
    },
    {
      "inputs": [],
      "name": "tokenInfo",
      "outputs": [
        {
          "internalType": "string",
          "name": "name",
          "type": "string"
        },
        {
          "internalType": "string",
          "name": "symbol",
          "type": "string"
        },
        {
          "internalType": "uint256",
          "name": "decimal",
          "type": "uint256"
        }
      ],
      "stateMutability": "view",
      "type": "function"
    },
    {
      "inputs": [
        {
          "internalType": "address",
          "name": "newOwner",
          "type": "address"
        }
      ],
      "name": "transferOwnership",
      "outputs": [],
      "stateMutability": "nonpayable",
      "type": "function"
    },
    {
      "stateMutability": "payable",
      "type": "receive"
    },
    {
      "inputs": [
        {
          "internalType": "address",
          "name": "tokenAddress_",
          "type": "address"
        },
        {
          "internalType": "address[]",
          "name": "receivers_",
          "type": "address[]"
        },
        {
          "internalType": "uint256[]",
          "name": "amounts_",
          "type": "uint256[]"
        }
      ],
      "name": "multiSendTokenFromContractAt",
      "outputs": [],
      "stateMutability": "nonpayable",
      "type": "function"
    },
    {
      "inputs": [
        {
          "internalType": "address",
          "name": "tokenAddress_",
          "type": "address"
        },
        {
          "internalType": "address[]",
          "name": "receivers_",
          "type": "address[]"
        },
        {
          "internalType": "uint256[]",
          "name": "amounts_",
          "type": "uint256[]"
        }
      ],
      "name": "multiSendTokensFromWalletAt",
      "outputs": [],
      "stateMutability": "payable",
      "type": "function"
    },
    {
      "inputs": [
        {
          "internalType": "address",
          "name": "to_",
          "type": "address"
        },
        {
          "internalType": "uint256",
          "name": "amount_",
          "type": "uint256"
        }
      ],
      "name": "addReceiver",
      "outputs": [],
      "stateMutability": "nonpayable",
      "type": "function"
    },
    {
      "inputs": [
        {
          "internalType": "address[]",
          "name": "receivers_",
          "type": "address[]"
        },
        {
          "internalType": "uint256[]",
          "name": "amounts_",
          "type": "uint256[]"
        }
      ],
      "name": "addReceivers",
      "outputs": [],
      "stateMutability": "nonpayable",
      "type": "function"
    },
    {
      "inputs": [],
      "name": "initAddressList",
      "outputs": [],
      "stateMutability": "nonpayable",
      "type": "function"
    },
    {
      "inputs": [],
      "name": "distributeTokens",
      "outputs": [],
      "stateMutability": "nonpayable",
      "type": "function"
    },
    {
      "inputs": [
        {
          "internalType": "address",
          "name": "newAddress_",
          "type": "address"
        }
      ],
      "name": "setTokenForDistribution",
      "outputs": [],
      "stateMutability": "nonpayable",
      "type": "function"
    },
    {
      "inputs": [],
      "name": "getTokenSupplyForDistrubution",
      "outputs": [
        {
          "internalType": "uint256",
          "name": "",
          "type": "uint256"
        }
      ],
      "stateMutability": "view",
      "type": "function"
    },
    {
      "inputs": [],
      "name": "serviceFee",
      "outputs": [
        {
          "internalType": "uint256",
          "name": "",
          "type": "uint256"
        }
      ],
      "stateMutability": "view",
      "type": "function"
    },
    {
      "inputs": [
        {
          "internalType": "uint256",
          "name": "fee_",
          "type": "uint256"
        }
      ],
      "name": "setServiceFee",
      "outputs": [],
      "stateMutability": "nonpayable",
      "type": "function"
    },
    {
      "inputs": [
        {
          "internalType": "address",
          "name": "to_",
          "type": "address"
        }
      ],
      "name": "reClaimCoin",
      "outputs": [],
      "stateMutability": "nonpayable",
      "type": "function"
    },
    {
      "inputs": [
        {
          "internalType": "address",
          "name": "token_",
          "type": "address"
        },
        {
          "internalType": "address",
          "name": "to_",
          "type": "address"
        }
      ],
      "name": "reClaimToken",
      "outputs": [],
      "stateMutability": "nonpayable",
      "type": "function"
    }
  ],
  "bytecode": "0x60806040526703782dace9d9000060055534801561001c57600080fd5b506100263361002b565b61007b565b600080546001600160a01b038381166001600160a01b0319831681178455604051919092169283917f8be0079c531659141344cd1fd0a4f28419497f9722a3daafe3b4186f6b6457e09190a35050565b6126388061008a6000396000f3fe60806040526004361061012d5760003560e01c80637f1bdeba116100a5578063a037873011610074578063eb90d9f711610059578063eb90d9f71461031c578063f1223a5714610331578063f2fde38b1461035157600080fd5b8063a0378730146102dc578063d3f9f690146102fc57600080fd5b80637f1bdeba146102815780638abdf5aa146102945780638da5cb5b146102a95780639ab1b484146102c757600080fd5b80635cdf76f8116100fc5780636590cf7d116100e15780636590cf7d146102285780636addb66314610248578063715018a61461026c57600080fd5b80635cdf76f8146101e85780635f3ccdd91461020857600080fd5b80630796f255146101395780631d4822b9146101765780634deee475146101985780635263b348146101ad57600080fd5b3661013457005b600080fd5b34801561014557600080fd5b50600154610159906001600160a01b031681565b6040516001600160a01b0390911681526020015b60405180910390f35b34801561018257600080fd5b50610196610191366004612106565b610371565b005b3480156101a457600080fd5b506101966105f4565b3480156101b957600080fd5b506101da6101c8366004612139565b60086020526000908152604090205481565b60405190815260200161016d565b3480156101f457600080fd5b5061019661020336600461215b565b610661565b34801561021457600080fd5b50610196610223366004612174565b610717565b34801561023457600080fd5b506101966102433660046122d6565b61094b565b34801561025457600080fd5b5061025d610dc1565b60405161016d939291906123a2565b34801561027857600080fd5b50610196610ee7565b61019661028f3660046122d6565b610f4d565b3480156102a057600080fd5b506005546101da565b3480156102b557600080fd5b506000546001600160a01b0316610159565b3480156102d357600080fd5b50610196611425565b3480156102e857600080fd5b506101966102f73660046123d8565b611598565b34801561030857600080fd5b50610196610317366004612139565b6117be565b34801561032857600080fd5b506101da6118b6565b34801561033d57600080fd5b5061019661034c366004612139565b611928565b34801561035d57600080fd5b5061019661036c366004612139565b611c32565b6000546001600160a01b031633146103d05760405162461bcd60e51b815260206004820181905260248201527f4f776e61626c653a2063616c6c6572206973206e6f7420746865206f776e657260448201526064015b60405180910390fd5b6001600160a01b0381166104355760405162461bcd60e51b815260206004820152602660248201527f4d756c746953656e6465723a20636c61696d20746f20746865207a65726f206160448201526564647265737360d01b60648201526084016103c7565b6001600160a01b03821661049a5760405162461bcd60e51b815260206004820152602660248201527f4d756c746953656e6465723a20636c61696d20746f20746865207a65726f206160448201526564647265737360d01b60648201526084016103c7565b6001600160a01b0382163014156104f35760405162461bcd60e51b815260206004820152601a60248201527f4d756c746953656e6465723a2073656c6620776974686472617700000000000060448201526064016103c7565b6040516370a0823160e01b81523060048201526000906001600160a01b038416906370a0823190602401602060405180830381865afa15801561053a573d6000803e3d6000fd5b505050506040513d601f19601f8201168201806040525081019061055e919061243c565b6040517fa9059cbb0000000000000000000000000000000000000000000000000000000081526001600160a01b038481166004830152602482018390529192509084169063a9059cbb906044016020604051808303816000875af11580156105ca573d6000803e3d6000fd5b505050506040513d601f19601f820116820180604052508101906105ee9190612455565b50505050565b6000546001600160a01b0316331461064e5760405162461bcd60e51b815260206004820181905260248201527f4f776e61626c653a2063616c6c6572206973206e6f7420746865206f776e657260448201526064016103c7565b6006805461065e91600791612011565b50565b6000546001600160a01b031633146106bb5760405162461bcd60e51b815260206004820181905260248201527f4f776e61626c653a2063616c6c6572206973206e6f7420746865206f776e657260448201526064016103c7565b670de0b6b3a764000081106107125760405162461bcd60e51b815260206004820152601760248201527f4d756c746953656e6465723a20546f6f2067726565647900000000000000000060448201526064016103c7565b600555565b6000546001600160a01b031633146107715760405162461bcd60e51b815260206004820181905260248201527f4f776e61626c653a2063616c6c6572206973206e6f7420746865206f776e657260448201526064016103c7565b6001600160a01b0382166107ed5760405162461bcd60e51b815260206004820152602760248201527f4d756c746953656e6465723a2043616e27742073656e6420746f207a65726f2060448201527f616464726573730000000000000000000000000000000000000000000000000060648201526084016103c7565b6001600160a01b03821630141561086c5760405162461bcd60e51b815260206004820152602760248201527f4d756c746953656e6465723a2043616e27742073656e6420746f2073656c662060448201527f616464726573730000000000000000000000000000000000000000000000000060648201526084016103c7565b600081116108e25760405162461bcd60e51b815260206004820152602f60248201527f4d756c746953656e6465723a20416d6f756e742073686f756c6420626520677260448201527f6561746572207468616e207a65726f000000000000000000000000000000000060648201526084016103c7565b60078054600181019091557fa66cc928b5edb82af9bd49922954155ab7b0942694bea4ce44661d9a8736c6880180546001600160a01b0390931673ffffffffffffffffffffffffffffffffffffffff199093168317905560009182526008602052604090912055565b6000546001600160a01b031633146109a55760405162461bcd60e51b815260206004820181905260248201527f4f776e61626c653a2063616c6c6572206973206e6f7420746865206f776e657260448201526064016103c7565b6001600160a01b038316610a215760405162461bcd60e51b815260206004820152602a60248201527f4d756c746953656e6465723a20416464726573732063616e2774206265207a6560448201527f726f20616464726573730000000000000000000000000000000000000000000060648201526084016103c7565b6001600160a01b038316301415610a895760405162461bcd60e51b815260206004820152602660248201527f4d756c746953656e6465723a2043616e2774207365742061732073656c66206160448201526564647265737360d01b60648201526084016103c7565b6040516370a0823160e01b81523060048201526000906001600160a01b038516906370a0823190602401602060405180830381865afa158015610ad0573d6000803e3d6000fd5b505050506040513d601f19601f82011682018060405250810190610af4919061243c565b11610b525760405162461bcd60e51b815260206004820152602860248201527f4d756c746953656e6465723a20496e73756666696369656e7420746f6b656e73604482015267081d1bc81cd95b9960c21b60648201526084016103c7565b6000825111610bc95760405162461bcd60e51b815260206004820152603860248201527f4d756c746953656e6465723a205265636569766572206c656e6774682073686f60448201527f756c642062652067726561746572207468616e207a65726f000000000000000060648201526084016103c7565b8051825114610c405760405162461bcd60e51b815260206004820152603d60248201527f4d756c746953656e6465723a205265636569766572206c656e6774682073686f60448201527f756c642062652073616d6520617320616d6f756e7473206c656e67746800000060648201526084016103c7565b6000805b8351811015610c8657828181518110610c5f57610c5f612477565b602002602001015182610c7291906124a3565b915080610c7e816124bb565b915050610c44565b506040516370a0823160e01b815230600482015281906001600160a01b038616906370a0823190602401602060405180830381865afa158015610ccd573d6000803e3d6000fd5b505050506040513d601f19601f82011682018060405250810190610cf1919061243c565b1015610d505760405162461bcd60e51b815260206004820152602860248201527f4d756c746953656e6465723a20496e73756666696369656e7420746f6b656e73604482015267081d1bc81cd95b9960c21b60648201526084016103c7565b60005b8351811015610dba576001548451610da8916001600160a01b031690869084908110610d8157610d81612477565b6020026020010151858481518110610d9b57610d9b612477565b6020026020010151611cfa565b80610db2816124bb565b915050610d53565b5050505050565b600280548190610dd0906124f4565b80601f0160208091040260200160405190810160405280929190818152602001828054610dfc906124f4565b8015610e495780601f10610e1e57610100808354040283529160200191610e49565b820191906000526020600020905b815481529060010190602001808311610e2c57829003601f168201915b505050505090806001018054610e5e906124f4565b80601f0160208091040260200160405190810160405280929190818152602001828054610e8a906124f4565b8015610ed75780601f10610eac57610100808354040283529160200191610ed7565b820191906000526020600020905b815481529060010190602001808311610eba57829003601f168201915b5050505050908060020154905083565b6000546001600160a01b03163314610f415760405162461bcd60e51b815260206004820181905260248201527f4f776e61626c653a2063616c6c6572206973206e6f7420746865206f776e657260448201526064016103c7565b610f4b6000611e3c565b565b6005543411610fc45760405162461bcd60e51b815260206004820152602560248201527f4d756c746953656e6465723a204d7573742070617920617070726f707265617460448201527f652066656500000000000000000000000000000000000000000000000000000060648201526084016103c7565b6001600160a01b0383166110405760405162461bcd60e51b815260206004820152602a60248201527f4d756c746953656e6465723a20416464726573732063616e2774206265207a6560448201527f726f20616464726573730000000000000000000000000000000000000000000060648201526084016103c7565b6001600160a01b0383163014156110a85760405162461bcd60e51b815260206004820152602660248201527f4d756c746953656e6465723a2043616e2774207365742061732073656c66206160448201526564647265737360d01b60648201526084016103c7565b60006001600160a01b0384166370a08231336040517fffffffff0000000000000000000000000000000000000000000000000000000060e084901b1681526001600160a01b039091166004820152602401602060405180830381865afa158015611116573d6000803e3d6000fd5b505050506040513d601f19601f8201168201806040525081019061113a919061243c565b116111985760405162461bcd60e51b815260206004820152602860248201527f4d756c746953656e6465723a20496e73756666696369656e7420746f6b656e73604482015267081d1bc81cd95b9960c21b60648201526084016103c7565b600082511161120f5760405162461bcd60e51b815260206004820152603860248201527f4d756c746953656e6465723a205265636569766572206c656e6774682073686f60448201527f756c642062652067726561746572207468616e207a65726f000000000000000060648201526084016103c7565b80518251146112865760405162461bcd60e51b815260206004820152603d60248201527f4d756c746953656e6465723a205265636569766572206c656e6774682073686f60448201527f756c642062652073616d6520617320616d6f756e7473206c656e67746800000060648201526084016103c7565b6000805b83518110156112cc578281815181106112a5576112a5612477565b6020026020010151826112b891906124a3565b9150806112c4816124bb565b91505061128a565b50806001600160a01b0385166370a08231336040517fffffffff0000000000000000000000000000000000000000000000000000000060e084901b1681526001600160a01b039091166004820152602401602060405180830381865afa15801561133a573d6000803e3d6000fd5b505050506040513d601f19601f8201168201806040525081019061135e919061243c565b10156113bd5760405162461bcd60e51b815260206004820152602860248201527f4d756c746953656e6465723a20496e73756666696369656e7420746f6b656e73604482015267081d1bc81cd95b9960c21b60648201526084016103c7565b60005b8351811015610dba57600154611413906001600160a01b0316338684815181106113ec576113ec612477565b602002602001015186858151811061140657611406612477565b6020026020010151611e99565b8061141d816124bb565b9150506113c0565b6000546001600160a01b0316331461147f5760405162461bcd60e51b815260206004820181905260248201527f4f776e61626c653a2063616c6c6572206973206e6f7420746865206f776e657260448201526064016103c7565b6007546114f45760405162461bcd60e51b815260206004820152603060248201527f4d756c746953656e6465723a20446f6e2774206861766520616464726573736560448201527f7320746f2073656e6420746f6b656e730000000000000000000000000000000060648201526084016103c7565b60005b60075481101561065e5760015460078054611586926001600160a01b031691908490811061152757611527612477565b9060005260206000200160009054906101000a90046001600160a01b0316600860006007868154811061155c5761155c612477565b60009182526020808320909101546001600160a01b03168352820192909252604001902054611cfa565b80611590816124bb565b9150506114f7565b6000546001600160a01b031633146115f25760405162461bcd60e51b815260206004820181905260248201527f4f776e61626c653a2063616c6c6572206973206e6f7420746865206f776e657260448201526064016103c7565b60008251116116695760405162461bcd60e51b815260206004820152603560248201527f4d756c746953656e6465723a2041646472657373206c6973742073686f756c6460448201527f2062652067726561746572207468616e207a65726f000000000000000000000060648201526084016103c7565b80518251146116e05760405162461bcd60e51b815260206004820152603860248201527f4d756c746953656e6465723a204e65656420746f20686176652073616d65206c60448201527f656e677468206f6620746f7320616e6420616d6f756e7473000000000000000060648201526084016103c7565b60005b82518110156117b957600783828151811061170057611700612477565b602090810291909101810151825460018101845560009384529190922001805473ffffffffffffffffffffffffffffffffffffffff19166001600160a01b03909216919091179055815182908290811061175c5761175c612477565b60200260200101516008600085848151811061177a5761177a612477565b60200260200101516001600160a01b03166001600160a01b031681526020019081526020016000208190555080806117b1906124bb565b9150506116e3565b505050565b6000546001600160a01b031633146118185760405162461bcd60e51b815260206004820181905260248201527f4f776e61626c653a2063616c6c6572206973206e6f7420746865206f776e657260448201526064016103c7565b6001600160a01b03811661187d5760405162461bcd60e51b815260206004820152602660248201527f4d756c746953656e6465723a20636c61696d20746f20746865207a65726f206160448201526564647265737360d01b60648201526084016103c7565b6040516001600160a01b038216904780156108fc02916000818181858888f193505050501580156118b2573d6000803e3d6000fd5b5050565b6001546040516370a0823160e01b81523060048201526000916001600160a01b0316906370a0823190602401602060405180830381865afa1580156118ff573d6000803e3d6000fd5b505050506040513d601f19601f82011682018060405250810190611923919061243c565b905090565b6000546001600160a01b031633146119825760405162461bcd60e51b815260206004820181905260248201527f4f776e61626c653a2063616c6c6572206973206e6f7420746865206f776e657260448201526064016103c7565b6001600160a01b0381166119fe5760405162461bcd60e51b815260206004820152602a60248201527f4d756c746953656e6465723a20416464726573732063616e2774206265207a6560448201527f726f20616464726573730000000000000000000000000000000000000000000060648201526084016103c7565b6001600160a01b038116301415611a665760405162461bcd60e51b815260206004820152602660248201527f4d756c746953656e6465723a2043616e2774207365742061732073656c66206160448201526564647265737360d01b60648201526084016103c7565b6001805473ffffffffffffffffffffffffffffffffffffffff19166001600160a01b038316908117909155604080517f06fdde0300000000000000000000000000000000000000000000000000000000815290516306fdde03916004808201926000929091908290030181865afa158015611ae5573d6000803e3d6000fd5b505050506040513d6000823e601f3d908101601f19168201604052611b0d919081019061252f565b8051611b2191600291602090910190612061565b50600160009054906101000a90046001600160a01b03166001600160a01b03166395d89b416040518163ffffffff1660e01b8152600401600060405180830381865afa158015611b75573d6000803e3d6000fd5b505050506040513d6000823e601f3d908101601f19168201604052611b9d919081019061252f565b8051611bb191600391602090910190612061565b50600160009054906101000a90046001600160a01b03166001600160a01b031663313ce5676040518163ffffffff1660e01b8152600401602060405180830381865afa158015611c05573d6000803e3d6000fd5b505050506040513d601f19601f82011682018060405250810190611c2991906125c3565b60ff1660045550565b6000546001600160a01b03163314611c8c5760405162461bcd60e51b815260206004820181905260248201527f4f776e61626c653a2063616c6c6572206973206e6f7420746865206f776e657260448201526064016103c7565b6001600160a01b038116611cf15760405162461bcd60e51b815260206004820152602660248201527f4f776e61626c653a206e6577206f776e657220697320746865207a65726f206160448201526564647265737360d01b60648201526084016103c7565b61065e81611e3c565b604080516001600160a01b038481166024830152604480830185905283518084039091018152606490920183526020820180517bffffffffffffffffffffffffffffffffffffffffffffffffffffffff167fa9059cbb000000000000000000000000000000000000000000000000000000001790529151600092839290871691611d8491906125e6565b6000604051808303816000865af19150503d8060008114611dc1576040519150601f19603f3d011682016040523d82523d6000602084013e611dc6565b606091505b5091509150818015611df0575080511580611df0575080806020019051810190611df09190612455565b610dba5760405162461bcd60e51b815260206004820152601c60248201527f4d756c746953656e6465723a205452414e534645525f4641494c45440000000060448201526064016103c7565b600080546001600160a01b0383811673ffffffffffffffffffffffffffffffffffffffff19831681178455604051919092169283917f8be0079c531659141344cd1fd0a4f28419497f9722a3daafe3b4186f6b6457e09190a35050565b604080516001600160a01b0385811660248301528481166044830152606480830185905283518084039091018152608490920183526020820180517bffffffffffffffffffffffffffffffffffffffffffffffffffffffff167f23b872dd000000000000000000000000000000000000000000000000000000001790529151600092839290881691611f2b91906125e6565b6000604051808303816000865af19150503d8060008114611f68576040519150601f19603f3d011682016040523d82523d6000602084013e611f6d565b606091505b5091509150818015611f97575080511580611f97575080806020019051810190611f979190612455565b6120095760405162461bcd60e51b815260206004820152602160248201527f4d756c746953656e6465723a205452414e534645525f46524f4d5f4641494c4560448201527f440000000000000000000000000000000000000000000000000000000000000060648201526084016103c7565b505050505050565b8280548282559060005260206000209081019282156120515760005260206000209182015b82811115612051578254825591600101919060010190612036565b5061205d9291506120d5565b5090565b82805461206d906124f4565b90600052602060002090601f01602090048101928261208f5760008555612051565b82601f106120a857805160ff1916838001178555612051565b82800160010185558215612051579182015b828111156120515782518255916020019190600101906120ba565b5b8082111561205d57600081556001016120d6565b80356001600160a01b038116811461210157600080fd5b919050565b6000806040838503121561211957600080fd5b612122836120ea565b9150612130602084016120ea565b90509250929050565b60006020828403121561214b57600080fd5b612154826120ea565b9392505050565b60006020828403121561216d57600080fd5b5035919050565b6000806040838503121561218757600080fd5b612190836120ea565b946020939093013593505050565b634e487b7160e01b600052604160045260246000fd5b604051601f8201601f1916810167ffffffffffffffff811182821017156121dd576121dd61219e565b604052919050565b600067ffffffffffffffff8211156121ff576121ff61219e565b5060051b60200190565b600082601f83011261221a57600080fd5b8135602061222f61222a836121e5565b6121b4565b82815260059290921b8401810191818101908684111561224e57600080fd5b8286015b8481101561227057612263816120ea565b8352918301918301612252565b509695505050505050565b600082601f83011261228c57600080fd5b8135602061229c61222a836121e5565b82815260059290921b840181019181810190868411156122bb57600080fd5b8286015b8481101561227057803583529183019183016122bf565b6000806000606084860312156122eb57600080fd5b6122f4846120ea565b9250602084013567ffffffffffffffff8082111561231157600080fd5b61231d87838801612209565b9350604086013591508082111561233357600080fd5b506123408682870161227b565b9150509250925092565b60005b8381101561236557818101518382015260200161234d565b838111156105ee5750506000910152565b6000815180845261238e81602086016020860161234a565b601f01601f19169290920160200192915050565b6060815260006123b56060830186612376565b82810360208401526123c78186612376565b915050826040830152949350505050565b600080604083850312156123eb57600080fd5b823567ffffffffffffffff8082111561240357600080fd5b61240f86838701612209565b9350602085013591508082111561242557600080fd5b506124328582860161227b565b9150509250929050565b60006020828403121561244e57600080fd5b5051919050565b60006020828403121561246757600080fd5b8151801515811461215457600080fd5b634e487b7160e01b600052603260045260246000fd5b634e487b7160e01b600052601160045260246000fd5b600082198211156124b6576124b661248d565b500190565b60007fffffffffffffffffffffffffffffffffffffffffffffffffffffffffffffffff8214156124ed576124ed61248d565b5060010190565b600181811c9082168061250857607f821691505b6020821081141561252957634e487b7160e01b600052602260045260246000fd5b50919050565b60006020828403121561254157600080fd5b815167ffffffffffffffff8082111561255957600080fd5b818401915084601f83011261256d57600080fd5b81518181111561257f5761257f61219e565b6125926020601f19601f840116016121b4565b91508082528560208285010111156125a957600080fd5b6125ba81602084016020860161234a565b50949350505050565b6000602082840312156125d557600080fd5b815160ff8116811461215457600080fd5b600082516125f881846020870161234a565b919091019291505056fea2646970667358221220fa8abd9e48f7ea9bb2360860f57b77197a33a2889c9050caa0f66d51bc91fa2564736f6c634300080c0033",
  "immutableReferences": {},
  "source": "// SPDX-License-Identifier: MIT\n\npragma solidity ^0.8.11;\n\n/**\n*  _____         _                   _____                   _              \n* /  __ \\       | |                 /  ___|                 | |             \n* | /  \\/  ___  | |__   _ __   __ _ \\ `--.   ___  _ __    __| |  ___  _ __  \n* | |     / _ \\ | '_ \\ | '__| / _` | `--. \\ / _ \\| '_ \\  / _` | / _ \\| '__| \n* | \\__/\\| (_) || |_) || |   | (_| |/\\__/ /|  __/| | | || (_| ||  __/| |    \n*  \\____/ \\___/ |_.__/ |_|    \\__,_|\\____/  \\___||_| |_| \\__,_| \\___||_|    \n*                                                                          \n */\n\nlibrary Address {\n    /**\n     * @dev Returns true if `account` is a contract.\n     *\n     * [IMPORTANT]\n     * ====\n     * It is unsafe to assume that an address for which this function returns\n     * false is an externally-owned account (EOA) and not a contract.\n     *\n     * Among others, `isContract` will return false for the following\n     * types of addresses:\n     *\n     *  - an externally-owned account\n     *  - a contract in construction\n     *  - an address where a contract will be created\n     *  - an address where a contract lived, but was destroyed\n     * ====\n     *\n     * [IMPORTANT]\n     * ====\n     * You shouldn't rely on `isContract` to protect against flash loan attacks!\n     *\n     * Preventing calls from contracts is highly discouraged. It breaks composability, breaks support for smart wallets\n     * like Gnosis Safe, and does not provide security since it can be circumvented by calling from a contract\n     * constructor.\n     * ====\n     */\n    function isContract(address account) internal view returns (bool) {\n        // This method relies on extcodesize/address.code.length, which returns 0\n        // for contracts in construction, since the code is only stored at the end\n        // of the constructor execution.\n\n        return account.code.length > 0;\n    }\n\n    /**\n     * @dev Replacement for Solidity's `transfer`: sends `amount` wei to\n     * `recipient`, forwarding all available gas and reverting on errors.\n     *\n     * https://eips.ethereum.org/EIPS/eip-1884[EIP1884] increases the gas cost\n     * of certain opcodes, possibly making contracts go over the 2300 gas limit\n     * imposed by `transfer`, making them unable to receive funds via\n     * `transfer`. {sendValue} removes this limitation.\n     *\n     * https://diligence.consensys.net/posts/2019/09/stop-using-soliditys-transfer-now/[Learn more].\n     *\n     * IMPORTANT: because control is transferred to `recipient`, care must be\n     * taken to not create reentrancy vulnerabilities. Consider using\n     * {ReentrancyGuard} or the\n     * https://solidity.readthedocs.io/en/v0.5.11/security-considerations.html#use-the-checks-effects-interactions-pattern[checks-effects-interactions pattern].\n     */\n    function sendValue(address payable recipient, uint256 amount) internal {\n        require(address(this).balance >= amount, \"Address: insufficient balance\");\n\n        (bool success, ) = recipient.call{value: amount}(\"\");\n        require(success, \"Address: unable to send value, recipient may have reverted\");\n    }\n\n    /**\n     * @dev Performs a Solidity function call using a low level `call`. A\n     * plain `call` is an unsafe replacement for a function call: use this\n     * function instead.\n     *\n     * If `target` reverts with a revert reason, it is bubbled up by this\n     * function (like regular Solidity function calls).\n     *\n     * Returns the raw returned data. To convert to the expected return value,\n     * use https://solidity.readthedocs.io/en/latest/units-and-global-variables.html?highlight=abi.decode#abi-encoding-and-decoding-functions[`abi.decode`].\n     *\n     * Requirements:\n     *\n     * - `target` must be a contract.\n     * - calling `target` with `data` must not revert.\n     *\n     * _Available since v3.1._\n     */\n    function functionCall(address target, bytes memory data) internal returns (bytes memory) {\n        return functionCall(target, data, \"Address: low-level call failed\");\n    }\n\n    /**\n     * @dev Same as {xref-Address-functionCall-address-bytes-}[`functionCall`], but with\n     * `errorMessage` as a fallback revert reason when `target` reverts.\n     *\n     * _Available since v3.1._\n     */\n    function functionCall(\n        address target,\n        bytes memory data,\n        string memory errorMessage\n    ) internal returns (bytes memory) {\n        return functionCallWithValue(target, data, 0, errorMessage);\n    }\n\n    /**\n     * @dev Same as {xref-Address-functionCall-address-bytes-}[`functionCall`],\n     * but also transferring `value` wei to `target`.\n     *\n     * Requirements:\n     *\n     * - the calling contract must have an ETH balance of at least `value`.\n     * - the called Solidity function must be `payable`.\n     *\n     * _Available since v3.1._\n     */\n    function functionCallWithValue(\n        address target,\n        bytes memory data,\n        uint256 value\n    ) internal returns (bytes memory) {\n        return functionCallWithValue(target, data, value, \"Address: low-level call with value failed\");\n    }\n\n    /**\n     * @dev Same as {xref-Address-functionCallWithValue-address-bytes-uint256-}[`functionCallWithValue`], but\n     * with `errorMessage` as a fallback revert reason when `target` reverts.\n     *\n     * _Available since v3.1._\n     */\n    function functionCallWithValue(\n        address target,\n        bytes memory data,\n        uint256 value,\n        string memory errorMessage\n    ) internal returns (bytes memory) {\n        require(address(this).balance >= value, \"Address: insufficient balance for call\");\n        require(isContract(target), \"Address: call to non-contract\");\n\n        (bool success, bytes memory returndata) = target.call{value: value}(data);\n        return verifyCallResult(success, returndata, errorMessage);\n    }\n\n    /**\n     * @dev Same as {xref-Address-functionCall-address-bytes-}[`functionCall`],\n     * but performing a static call.\n     *\n     * _Available since v3.3._\n     */\n    function functionStaticCall(address target, bytes memory data) internal view returns (bytes memory) {\n        return functionStaticCall(target, data, \"Address: low-level static call failed\");\n    }\n\n    /**\n     * @dev Same as {xref-Address-functionCall-address-bytes-string-}[`functionCall`],\n     * but performing a static call.\n     *\n     * _Available since v3.3._\n     */\n    function functionStaticCall(\n        address target,\n        bytes memory data,\n        string memory errorMessage\n    ) internal view returns (bytes memory) {\n        require(isContract(target), \"Address: static call to non-contract\");\n\n        (bool success, bytes memory returndata) = target.staticcall(data);\n        return verifyCallResult(success, returndata, errorMessage);\n    }\n\n    /**\n     * @dev Same as {xref-Address-functionCall-address-bytes-}[`functionCall`],\n     * but performing a delegate call.\n     *\n     * _Available since v3.4._\n     */\n    function functionDelegateCall(address target, bytes memory data) internal returns (bytes memory) {\n        return functionDelegateCall(target, data, \"Address: low-level delegate call failed\");\n    }\n\n    /**\n     * @dev Same as {xref-Address-functionCall-address-bytes-string-}[`functionCall`],\n     * but performing a delegate call.\n     *\n     * _Available since v3.4._\n     */\n    function functionDelegateCall(\n        address target,\n        bytes memory data,\n        string memory errorMessage\n    ) internal returns (bytes memory) {\n        require(isContract(target), \"Address: delegate call to non-contract\");\n\n        (bool success, bytes memory returndata) = target.delegatecall(data);\n        return verifyCallResult(success, returndata, errorMessage);\n    }\n\n    /**\n     * @dev Tool to verifies that a low level call was successful, and revert if it wasn't, either by bubbling the\n     * revert reason using the provided one.\n     *\n     * _Available since v4.3._\n     */\n    function verifyCallResult(\n        bool success,\n        bytes memory returndata,\n        string memory errorMessage\n    ) internal pure returns (bytes memory) {\n        if (success) {\n            return returndata;\n        } else {\n            // Look for revert reason and bubble it up if present\n            if (returndata.length > 0) {\n                // The easiest way to bubble the revert reason is using memory via assembly\n\n                assembly {\n                    let returndata_size := mload(returndata)\n                    revert(add(32, returndata), returndata_size)\n                }\n            } else {\n                revert(errorMessage);\n            }\n        }\n    }\n}\n\nabstract contract Context {\n    function _msgSender() internal view virtual returns (address) {\n      return msg.sender;\n    }\n\n    function _msgData() internal view virtual returns (bytes calldata) {\n      return msg.data;\n    }\n\n    function _msgValue() internal view virtual returns (uint256) {\n      return msg.value;\n    }\n}\n\nabstract contract Ownable is Context {\n    address private _owner;\n\n    event OwnershipTransferred(address indexed previousOwner, address indexed newOwner);\n\n    /**\n     * @dev Initializes the contract setting the deployer as the initial owner.\n     */\n    constructor() {\n        _transferOwnership(_msgSender());\n    }\n\n    /**\n     * @dev Returns the address of the current owner.\n     */\n    function owner() public view virtual returns (address) {\n        return _owner;\n    }\n\n    /**\n     * @dev Throws if called by any account other than the owner.\n     */\n    modifier onlyOwner() {\n        require(owner() == _msgSender(), \"Ownable: caller is not the owner\");\n        _;\n    }\n\n    /**\n     * @dev Leaves the contract without owner. It will not be possible to call\n     * `onlyOwner` functions anymore. Can only be called by the current owner.\n     *\n     * NOTE: Renouncing ownership will leave the contract without an owner,\n     * thereby removing any functionality that is only available to the owner.\n     */\n    function renounceOwnership() public virtual onlyOwner {\n        _transferOwnership(address(0));\n    }\n\n    /**\n     * @dev Transfers ownership of the contract to a new account (`newOwner`).\n     * Can only be called by the current owner.\n     */\n    function transferOwnership(address newOwner) public virtual onlyOwner {\n        require(newOwner != address(0), \"Ownable: new owner is the zero address\");\n        _transferOwnership(newOwner);\n    }\n\n    /**\n     * @dev Transfers ownership of the contract to a new account (`newOwner`).\n     * Internal function without access restriction.\n     */\n    function _transferOwnership(address newOwner) internal virtual {\n        address oldOwner = _owner;\n        _owner = newOwner;\n        emit OwnershipTransferred(oldOwner, newOwner);\n    }\n}\n\ninterface IERC20 {\n    /**\n     * @dev Returns the amount of tokens in existence.\n     */\n    function totalSupply() external view returns (uint256);\n\n    /**\n     * @dev Returns the amount of tokens owned by `account`.\n     */\n    function balanceOf(address account) external view returns (uint256);\n\n    /**\n     * @dev Moves `amount` tokens from the caller's account to `to`.\n     *\n     * Returns a boolean value indicating whether the operation succeeded.\n     *\n     * Emits a {Transfer} event.\n     */\n    function transfer(address to, uint256 amount) external returns (bool);\n\n    /**\n     * @dev Returns the remaining number of tokens that `spender` will be\n     * allowed to spend on behalf of `owner` through {transferFrom}. This is\n     * zero by default.\n     *\n     * This value changes when {approve} or {transferFrom} are called.\n     */\n    function allowance(address owner, address spender) external view returns (uint256);\n\n    /**\n     * @dev Sets `amount` as the allowance of `spender` over the caller's tokens.\n     *\n     * Returns a boolean value indicating whether the operation succeeded.\n     *\n     * IMPORTANT: Beware that changing an allowance with this method brings the risk\n     * that someone may use both the old and the new allowance by unfortunate\n     * transaction ordering. One possible solution to mitigate this race\n     * condition is to first reduce the spender's allowance to 0 and set the\n     * desired value afterwards:\n     * https://github.com/ethereum/EIPs/issues/20#issuecomment-263524729\n     *\n     * Emits an {Approval} event.\n     */\n    function approve(address spender, uint256 amount) external returns (bool);\n\n    /**\n     * @dev Moves `amount` tokens from `from` to `to` using the\n     * allowance mechanism. `amount` is then deducted from the caller's\n     * allowance.\n     *\n     * Returns a boolean value indicating whether the operation succeeded.\n     *\n     * Emits a {Transfer} event.\n     */\n    function transferFrom(\n        address from,\n        address to,\n        uint256 amount\n    ) external returns (bool);\n\n    /**\n     * @dev Emitted when `value` tokens are moved from one account (`from`) to\n     * another (`to`).\n     *\n     * Note that `value` may be zero.\n     */\n    event Transfer(address indexed from, address indexed to, uint256 value);\n\n    /**\n     * @dev Emitted when the allowance of a `spender` for an `owner` is set by\n     * a call to {approve}. `value` is the new allowance.\n     */\n    event Approval(address indexed owner, address indexed spender, uint256 value);\n}\n\ninterface IERC20Metadata is IERC20 {\n    /**\n     * @dev Returns the name of the token.\n     */\n    function name() external view returns (string memory);\n\n    /**\n     * @dev Returns the symbol of the token.\n     */\n    function symbol() external view returns (string memory);\n\n    /**\n     * @dev Returns the decimals places of the token.\n     */\n    function decimals() external view returns (uint8);\n}\n\nlibrary SafeERC20 {\n    using Address for address;\n\n    function safeTransfer(\n        IERC20 token,\n        address to,\n        uint256 value\n    ) internal {\n        _callOptionalReturn(token, abi.encodeWithSelector(token.transfer.selector, to, value));\n    }\n\n    function safeTransferFrom(\n        IERC20 token,\n        address from,\n        address to,\n        uint256 value\n    ) internal {\n        _callOptionalReturn(token, abi.encodeWithSelector(token.transferFrom.selector, from, to, value));\n    }\n\n    /**\n     * @dev Deprecated. This function has issues similar to the ones found in\n     * {IERC20-approve}, and its usage is discouraged.\n     *\n     * Whenever possible, use {safeIncreaseAllowance} and\n     * {safeDecreaseAllowance} instead.\n     */\n    function safeApprove(\n        IERC20 token,\n        address spender,\n        uint256 value\n    ) internal {\n        // safeApprove should only be called when setting an initial allowance,\n        // or when resetting it to zero. To increase and decrease it, use\n        // 'safeIncreaseAllowance' and 'safeDecreaseAllowance'\n        require(\n            (value == 0) || (token.allowance(address(this), spender) == 0),\n            \"SafeERC20: approve from non-zero to non-zero allowance\"\n        );\n        _callOptionalReturn(token, abi.encodeWithSelector(token.approve.selector, spender, value));\n    }\n\n    function safeIncreaseAllowance(\n        IERC20 token,\n        address spender,\n        uint256 value\n    ) internal {\n        uint256 newAllowance = token.allowance(address(this), spender) + value;\n        _callOptionalReturn(token, abi.encodeWithSelector(token.approve.selector, spender, newAllowance));\n    }\n\n    function safeDecreaseAllowance(\n        IERC20 token,\n        address spender,\n        uint256 value\n    ) internal {\n        unchecked {\n            uint256 oldAllowance = token.allowance(address(this), spender);\n            require(oldAllowance >= value, \"SafeERC20: decreased allowance below zero\");\n            uint256 newAllowance = oldAllowance - value;\n            _callOptionalReturn(token, abi.encodeWithSelector(token.approve.selector, spender, newAllowance));\n        }\n    }\n\n    /**\n     * @dev Imitates a Solidity high-level call (i.e. a regular function call to a contract), relaxing the requirement\n     * on the return value: the return value is optional (but if data is returned, it must not be false).\n     * @param token The token targeted by the call.\n     * @param data The call data (encoded using abi.encode or one of its variants).\n     */\n    function _callOptionalReturn(IERC20 token, bytes memory data) private {\n        // We need to perform a low level call here, to bypass Solidity's return data size checking mechanism, since\n        // we're implementing it ourselves. We use {Address.functionCall} to perform this call, which verifies that\n        // the target address contains contract code and also asserts for success in the low-level call.\n\n        bytes memory returndata = address(token).functionCall(data, \"SafeERC20: low-level call failed\");\n        if (returndata.length > 0) {\n            // Return data is optional\n            require(abi.decode(returndata, (bool)), \"SafeERC20: ERC20 operation did not succeed\");\n        }\n    }\n}\n\nlibrary TransferHelper {\n    function safeApprove(address token, address to, uint value) internal {\n        (bool success, bytes memory data) = token.call(abi.encodeWithSelector(0x095ea7b3, to, value));\n        require(success && (data.length == 0 || abi.decode(data, (bool))), \"MultiSender: APPROVE_FAILED\");\n    }\n\n    function safeTransfer(address token, address to, uint value) internal {\n        (bool success, bytes memory data) = token.call(abi.encodeWithSelector(0xa9059cbb, to, value));\n        require(success && (data.length == 0 || abi.decode(data, (bool))), \"MultiSender: TRANSFER_FAILED\");\n    }\n\n    function safeTransferFrom(address token, address from, address to, uint value) internal {\n        (bool success, bytes memory data) = token.call(abi.encodeWithSelector(0x23b872dd, from, to, value));\n        require(success && (data.length == 0 || abi.decode(data, (bool))), \"MultiSender: TRANSFER_FROM_FAILED\");\n    }\n    \n    // sends ETH or an erc20 token\n    function safeTransferBaseToken(address token, address payable to, uint value, bool isERC20) internal {\n        if (!isERC20) {\n            to.transfer(value);\n        } else {\n            (bool success, bytes memory data) = token.call(abi.encodeWithSelector(0xa9059cbb, to, value));\n            require(success && (data.length == 0 || abi.decode(data, (bool))), \"MultiSender: TRANSFER_FAILED\");\n        }\n    }\n}\n\ncontract MultiSender is Ownable {\n  using Address for address;\n  using SafeERC20 for IERC20;\n\n  struct TokenInfo {\n    string name;\n    string symbol;\n    uint256 decimal;\n  }\n\n  address public tokenAddressForDistribution;\n  TokenInfo public tokenInfo;\n\n  uint256 private _serviceFee = 0.25 ether;\n\n  address[] private _arrayInitiator;\n  address[] private _receivers;\n  mapping(address => uint256) public multiSendingInfo;\n\n  constructor () {}\n\n  /** \n   * @dev Send tokens to multiple address with amount passed in amounts_ array\n   * from the contract. Tokens need to be deposited to the contract to be sent\n   * by the contract.\n   *\n   * @param tokenAddress_ Token address to be sent\n   * @param receivers_ Address list to receive token specified by the address\n   * @param amounts_ Token amounts to be sent to each addresses\n   */\n  function multiSendTokenFromContractAt(address tokenAddress_, address[] memory receivers_, uint256[] memory amounts_) public onlyOwner {\n    require(tokenAddress_ != address(0), \"MultiSender: Address can't be zero address\");\n    require(tokenAddress_ != address(this), \"MultiSender: Can't set as self address\");\n    require(IERC20(tokenAddress_).balanceOf(address(this)) > 0, \"MultiSender: Insufficient tokens to send\");\n    require(receivers_.length > 0, \"MultiSender: Receiver length should be greater than zero\");\n    require(receivers_.length == amounts_.length, \"MultiSender: Receiver length should be same as amounts length\");\n\n    uint256 totalSupplyToDistribute = 0;\n    for (uint256 i = 0; i < receivers_.length; i++) {\n      totalSupplyToDistribute += amounts_[i];\n    }\n\n    require(IERC20(tokenAddress_).balanceOf(address(this)) >= totalSupplyToDistribute, \"MultiSender: Insufficient tokens to send\");\n\n    for (uint256 i = 0; i < receivers_.length; i++) {\n      TransferHelper.safeTransfer(address(tokenAddressForDistribution), address(receivers_[i]), amounts_[i]);\n    }\n  }\n\n  /** \n   * @dev Send tokens to multiple address with amount passed in amounts_ array\n   * from the wallet linked to the contract. Tokens need to be deposited to th\n   * e contract to be sent by the contract.\n   *\n   * [===== IMPORTANT =====]\n   * Need to increase allowance between wallet and the contract from the token\n   * smart contract\n   *\n   * @param tokenAddress_ Token address to be sent\n   * @param receivers_ Address list to receive token specified by the address\n   * @param amounts_ Token amounts to be sent to each addresses\n   */\n  function multiSendTokensFromWalletAt(address tokenAddress_, address[] memory receivers_, uint256[] memory amounts_) public payable {\n    require(_msgValue() > _serviceFee, \"MultiSender: Must pay appropreate fee\");\n    require(tokenAddress_ != address(0), \"MultiSender: Address can't be zero address\");\n    require(tokenAddress_ != address(this), \"MultiSender: Can't set as self address\");\n    require(IERC20(tokenAddress_).balanceOf(_msgSender()) > 0, \"MultiSender: Insufficient tokens to send\");\n    require(receivers_.length > 0, \"MultiSender: Receiver length should be greater than zero\");\n    require(receivers_.length == amounts_.length, \"MultiSender: Receiver length should be same as amounts length\");\n\n    uint256 totalSupplyToDistribute = 0;\n    for (uint256 i = 0; i < receivers_.length; i++) {\n      totalSupplyToDistribute += amounts_[i];\n    }\n\n    require(IERC20(tokenAddress_).balanceOf(_msgSender()) >= totalSupplyToDistribute, \"MultiSender: Insufficient tokens to send\");\n\n    for (uint256 i = 0; i < receivers_.length; i++) {\n      TransferHelper.safeTransferFrom(address(tokenAddressForDistribution), address(_msgSender()), address(receivers_[i]), amounts_[i]);\n    }\n  }\n\n\n\n  function addReceiver(address to_, uint256 amount_) public onlyOwner {\n    require(to_ != address(0), \"MultiSender: Can't send to zero address\");\n    require(to_ != address(this), \"MultiSender: Can't send to self address\");\n    require(amount_ > 0, \"MultiSender: Amount should be greater than zero\");\n\n    _receivers.push(to_);\n    multiSendingInfo[to_] = amount_;\n  }\n\n  function addReceivers(address[] memory receivers_, uint256[] memory amounts_) public onlyOwner {\n    require(receivers_.length > 0, \"MultiSender: Address list should be greater than zero\");\n    require(receivers_.length == amounts_.length, \"MultiSender: Need to have same length of tos and amounts\");\n\n    for (uint256 i = 0; i < receivers_.length; i++) {\n      _receivers.push(receivers_[i]);\n      multiSendingInfo[receivers_[i]] = amounts_[i];\n    }\n  }\n\n  function initAddressList() public onlyOwner {\n    // This overwrite is not for gas saving solution\n    _receivers = _arrayInitiator;\n  }\n\n  function distributeTokens() public onlyOwner {\n    require(_receivers.length > 0, \"MultiSender: Don't have addresses to send tokens\");\n\n    for (uint256 i = 0; i < _receivers.length; i++) {\n      TransferHelper.safeTransfer(address(tokenAddressForDistribution), address(_receivers[i]), multiSendingInfo[_receivers[i]]);\n    }\n  }\n\n  function setTokenForDistribution (address newAddress_) public onlyOwner {\n    require(newAddress_ != address(0), \"MultiSender: Address can't be zero address\");\n    require(newAddress_ != address(this), \"MultiSender: Can't set as self address\");\n    \n    tokenAddressForDistribution = newAddress_;\n\n    tokenInfo.name = IERC20Metadata(tokenAddressForDistribution).name();\n    tokenInfo.symbol = IERC20Metadata(tokenAddressForDistribution).symbol();\n    tokenInfo.decimal = IERC20Metadata(tokenAddressForDistribution).decimals();\n  }\n\n  function getTokenSupplyForDistrubution () public view returns (uint256) {\n    return IERC20(tokenAddressForDistribution).balanceOf(address(this));\n  }\n\n  function serviceFee() public view returns (uint256) {\n    return _serviceFee;\n  }\n\n  function setServiceFee(uint256 fee_) public onlyOwner {\n    require(fee_ < 1 ether, \"MultiSender: Too greedy\");\n\n    _serviceFee = fee_;\n  }\n\n  function reClaimCoin (address to_) public onlyOwner {\n      require(to_ != address(0), \"MultiSender: claim to the zero address\");\n\n      payable(to_).transfer(address(this).balance);\n  }\n\n  function reClaimToken (address token_, address to_) public onlyOwner {\n      require(to_ != address(0), \"MultiSender: claim to the zero address\");\n      require(token_ != address(0), \"MultiSender: claim to the zero address\");\n      require(token_ != address(this), \"MultiSender: self withdraw\");\n\n      uint256 tokenBalance = IERC20(token_).balanceOf(address(this));\n      IERC20(token_).transfer(to_, tokenBalance);\n  }\n\n  receive() external payable {}\n}",
  "sourcePath": "/home/koko/erc20-multisender-contract/contracts/multisender.sol",
  "compiler": {
    "name": "solc",
    "version": "0.8.12+commit.f00d7308.Emscripten.clang"
  },
  "schemaVersion": "3.4.10",
  "updatedAt": "2023-05-11T10:48:08.534Z",
  "devdoc": {
    "kind": "dev",
    "methods": {
      "multiSendTokenFromContractAt(address,address[],uint256[])": {
        "details": "Send tokens to multiple address with amount passed in amounts_ array from the contract. Tokens need to be deposited to the contract to be sent by the contract.",
        "params": {
          "amounts_": "Token amounts to be sent to each addresses",
          "receivers_": "Address list to receive token specified by the address",
          "tokenAddress_": "Token address to be sent"
        }
      },
      "multiSendTokensFromWalletAt(address,address[],uint256[])": {
        "details": "Send tokens to multiple address with amount passed in amounts_ array from the wallet linked to the contract. Tokens need to be deposited to th e contract to be sent by the contract. [===== IMPORTANT =====] Need to increase allowance between wallet and the contract from the token smart contract",
        "params": {
          "amounts_": "Token amounts to be sent to each addresses",
          "receivers_": "Address list to receive token specified by the address",
          "tokenAddress_": "Token address to be sent"
        }
      },
      "owner()": {
        "details": "Returns the address of the current owner."
      },
      "renounceOwnership()": {
        "details": "Leaves the contract without owner. It will not be possible to call `onlyOwner` functions anymore. Can only be called by the current owner. NOTE: Renouncing ownership will leave the contract without an owner, thereby removing any functionality that is only available to the owner."
      },
      "transferOwnership(address)": {
        "details": "Transfers ownership of the contract to a new account (`newOwner`). Can only be called by the current owner."
      }
    },
    "version": 1
  },
  "userdoc": {
    "kind": "user",
    "methods": {},
    "version": 1
  }
}